{
  "_format": "hh-sol-artifact-1",
  "contractName": "FHEBallot",
  "sourceName": "src/FHEBallot.sol",
  "abi": [
    {
      "inputs": [],
      "stateMutability": "nonpayable",
      "type": "constructor"
    },
    {
      "inputs": [],
      "name": "DecryptionNotAuthorized",
      "type": "error"
    },
    {
      "inputs": [],
      "name": "EnforcedPause",
      "type": "error"
    },
    {
      "inputs": [],
      "name": "ExpectedPause",
      "type": "error"
    },
    {
      "inputs": [
        {
          "internalType": "string",
          "name": "reason",
          "type": "string"
        }
      ],
      "name": "FHEOperationFailed",
      "type": "error"
    },
    {
      "inputs": [],
      "name": "InvalidEncryptedValue",
      "type": "error"
    },
    {
      "inputs": [],
      "name": "InvalidProof",
      "type": "error"
    },
    {
      "inputs": [],
      "name": "InvalidPublicKey",
      "type": "error"
    },
    {
      "inputs": [],
      "name": "InvalidTimeWindow",
      "type": "error"
    },
    {
      "inputs": [
        {
          "internalType": "address",
          "name": "owner",
          "type": "address"
        }
      ],
      "name": "OwnableInvalidOwner",
      "type": "error"
    },
    {
      "inputs": [
        {
          "internalType": "address",
          "name": "account",
          "type": "address"
        }
      ],
      "name": "OwnableUnauthorizedAccount",
      "type": "error"
    },
    {
      "inputs": [],
      "name": "ReentrancyGuardReentrantCall",
      "type": "error"
    },
    {
      "anonymous": false,
      "inputs": [
        {
          "indexed": false,
          "internalType": "string",
          "name": "operation",
          "type": "string"
        },
        {
          "indexed": false,
          "internalType": "uint256",
          "name": "gasUsed",
          "type": "uint256"
        }
      ],
      "name": "FHEOperationExecuted",
      "type": "event"
    },
    {
      "anonymous": false,
      "inputs": [
        {
          "indexed": true,
          "internalType": "address",
          "name": "previousOwner",
          "type": "address"
        },
        {
          "indexed": true,
          "internalType": "address",
          "name": "newOwner",
          "type": "address"
        }
      ],
      "name": "OwnershipTransferred",
      "type": "event"
    },
    {
      "anonymous": false,
      "inputs": [
        {
          "indexed": false,
          "internalType": "address",
          "name": "account",
          "type": "address"
        }
      ],
      "name": "Paused",
      "type": "event"
    },
    {
      "anonymous": false,
      "inputs": [
        {
          "indexed": true,
          "internalType": "bytes32",
          "name": "proofHash",
          "type": "bytes32"
        },
        {
          "indexed": false,
          "internalType": "bool",
          "name": "valid",
          "type": "bool"
        }
      ],
      "name": "ProofVerified",
      "type": "event"
    },
    {
      "anonymous": false,
      "inputs": [
        {
          "indexed": true,
          "internalType": "address",
          "name": "user",
          "type": "address"
        },
        {
          "indexed": false,
          "internalType": "bytes32",
          "name": "publicKey",
          "type": "bytes32"
        }
      ],
      "name": "PublicKeyRegistered",
      "type": "event"
    },
    {
      "anonymous": false,
      "inputs": [
        {
          "indexed": true,
          "internalType": "uint256",
          "name": "votingId",
          "type": "uint256"
        },
        {
          "indexed": false,
          "internalType": "uint256",
          "name": "totalVotes",
          "type": "uint256"
        },
        {
          "indexed": false,
          "internalType": "uint256",
          "name": "quorum",
          "type": "uint256"
        }
      ],
      "name": "QuorumReached",
      "type": "event"
    },
    {
      "anonymous": false,
      "inputs": [
        {
          "indexed": true,
          "internalType": "uint256",
          "name": "votingId",
          "type": "uint256"
        },
        {
          "indexed": false,
          "internalType": "uint256[]",
          "name": "results",
          "type": "uint256[]"
        },
        {
          "indexed": false,
          "internalType": "uint256",
          "name": "totalVotes",
          "type": "uint256"
        }
      ],
      "name": "ResultsDecrypted",
      "type": "event"
    },
    {
      "anonymous": false,
      "inputs": [
        {
          "indexed": false,
          "internalType": "address",
          "name": "account",
          "type": "address"
        }
      ],
      "name": "Unpaused",
      "type": "event"
    },
    {
      "anonymous": false,
      "inputs": [
        {
          "indexed": true,
          "internalType": "uint256",
          "name": "votingId",
          "type": "uint256"
        },
        {
          "indexed": true,
          "internalType": "address",
          "name": "voter",
          "type": "address"
        },
        {
          "indexed": false,
          "internalType": "uint256",
          "name": "timestamp",
          "type": "uint256"
        }
      ],
      "name": "VoteCast",
      "type": "event"
    },
    {
      "anonymous": false,
      "inputs": [
        {
          "indexed": true,
          "internalType": "uint256",
          "name": "votingId",
          "type": "uint256"
        },
        {
          "indexed": true,
          "internalType": "address",
          "name": "voter",
          "type": "address"
        },
        {
          "indexed": false,
          "internalType": "uint256",
          "name": "votingPower",
          "type": "uint256"
        }
      ],
      "name": "VoterWhitelisted",
      "type": "event"
    },
    {
      "anonymous": false,
      "inputs": [
        {
          "indexed": true,
          "internalType": "uint256",
          "name": "votingId",
          "type": "uint256"
        },
        {
          "indexed": false,
          "internalType": "string",
          "name": "name",
          "type": "string"
        },
        {
          "indexed": false,
          "internalType": "enum IFHEVoting.VoteType",
          "name": "voteType",
          "type": "uint8"
        },
        {
          "indexed": false,
          "internalType": "uint256",
          "name": "startTime",
          "type": "uint256"
        },
        {
          "indexed": false,
          "internalType": "uint256",
          "name": "endTime",
          "type": "uint256"
        }
      ],
      "name": "VotingCreated",
      "type": "event"
    },
    {
      "anonymous": false,
      "inputs": [
        {
          "indexed": true,
          "internalType": "uint256",
          "name": "votingId",
          "type": "uint256"
        },
        {
          "indexed": false,
          "internalType": "enum IFHEVoting.VotingStatus",
          "name": "oldStatus",
          "type": "uint8"
        },
        {
          "indexed": false,
          "internalType": "enum IFHEVoting.VotingStatus",
          "name": "newStatus",
          "type": "uint8"
        }
      ],
      "name": "VotingStatusChanged",
      "type": "event"
    },
    {
      "inputs": [],
      "name": "MAX_OPTIONS",
      "outputs": [
        {
          "internalType": "uint256",
          "name": "",
          "type": "uint256"
        }
      ],
      "stateMutability": "view",
      "type": "function"
    },
    {
      "inputs": [],
      "name": "MAX_VOTERS",
      "outputs": [
        {
          "internalType": "uint256",
          "name": "",
          "type": "uint256"
        }
      ],
      "stateMutability": "view",
      "type": "function"
    },
    {
      "inputs": [],
      "name": "MAX_VOTING_DURATION",
      "outputs": [
        {
          "internalType": "uint256",
          "name": "",
          "type": "uint256"
        }
      ],
      "stateMutability": "view",
      "type": "function"
    },
    {
      "inputs": [],
      "name": "MIN_VOTING_DURATION",
      "outputs": [
        {
          "internalType": "uint256",
          "name": "",
          "type": "uint256"
        }
      ],
      "stateMutability": "view",
      "type": "function"
    },
    {
      "inputs": [
        {
          "internalType": "uint256",
          "name": "votingId",
          "type": "uint256"
        },
        {
          "internalType": "externalEuint32[]",
          "name": "encryptedVotes",
          "type": "bytes32[]"
        },
        {
          "internalType": "uint256[]",
          "name": "credits",
          "type": "uint256[]"
        },
        {
          "internalType": "bytes",
          "name": "proof",
          "type": "bytes"
        }
      ],
      "name": "castQuadraticVote",
      "outputs": [],
      "stateMutability": "nonpayable",
      "type": "function"
    },
    {
      "inputs": [
        {
          "internalType": "uint256",
          "name": "votingId",
          "type": "uint256"
        },
        {
          "internalType": "externalEuint32",
          "name": "encryptedVote",
          "type": "bytes32"
        },
        {
          "internalType": "bytes",
          "name": "proof",
          "type": "bytes"
        }
      ],
      "name": "castVote",
      "outputs": [],
      "stateMutability": "nonpayable",
      "type": "function"
    },
    {
      "inputs": [
        {
          "internalType": "uint256",
          "name": "votingId",
          "type": "uint256"
        },
        {
          "internalType": "externalEuint32",
          "name": "encryptedVote",
          "type": "bytes32"
        },
        {
          "internalType": "uint256",
          "name": "weight",
          "type": "uint256"
        },
        {
          "internalType": "bytes",
          "name": "proof",
          "type": "bytes"
        }
      ],
      "name": "castWeightedVote",
      "outputs": [],
      "stateMutability": "nonpayable",
      "type": "function"
    },
    {
      "inputs": [
        {
          "components": [
            {
              "internalType": "string",
              "name": "name",
              "type": "string"
            },
            {
              "internalType": "string",
              "name": "description",
              "type": "string"
            },
            {
              "internalType": "enum IFHEVoting.VoteType",
              "name": "voteType",
              "type": "uint8"
            },
            {
              "internalType": "uint256",
              "name": "startTime",
              "type": "uint256"
            },
            {
              "internalType": "uint256",
              "name": "endTime",
              "type": "uint256"
            },
            {
              "internalType": "uint256",
              "name": "quorum",
              "type": "uint256"
            },
            {
              "internalType": "bool",
              "name": "whitelistEnabled",
              "type": "bool"
            },
            {
              "internalType": "uint256",
              "name": "maxVotersCount",
              "type": "uint256"
            }
          ],
          "internalType": "struct IFHEVoting.VotingConfig",
          "name": "config",
          "type": "tuple"
        },
        {
          "internalType": "string[]",
          "name": "optionNames",
          "type": "string[]"
        },
        {
          "internalType": "string[]",
          "name": "optionDescriptions",
          "type": "string[]"
        }
      ],
      "name": "createVoting",
      "outputs": [
        {
          "internalType": "uint256",
          "name": "votingId",
          "type": "uint256"
        }
      ],
      "stateMutability": "nonpayable",
      "type": "function"
    },
    {
      "inputs": [
        {
          "internalType": "uint256",
          "name": "",
          "type": "uint256"
        },
        {
          "internalType": "uint256",
          "name": "",
          "type": "uint256"
        }
      ],
      "name": "decryptedResults",
      "outputs": [
        {
          "internalType": "uint256",
          "name": "",
          "type": "uint256"
        }
      ],
      "stateMutability": "view",
      "type": "function"
    },
    {
      "inputs": [
        {
          "internalType": "uint256",
          "name": "",
          "type": "uint256"
        }
      ],
      "name": "decryptionRequestId",
      "outputs": [
        {
          "internalType": "uint256",
          "name": "",
          "type": "uint256"
        }
      ],
      "stateMutability": "view",
      "type": "function"
    },
    {
      "inputs": [],
      "name": "emergencyPause",
      "outputs": [],
      "stateMutability": "nonpayable",
      "type": "function"
    },
    {
      "inputs": [],
      "name": "emergencyUnpause",
      "outputs": [],
      "stateMutability": "nonpayable",
      "type": "function"
    },
    {
      "inputs": [
        {
          "internalType": "uint256",
          "name": "",
          "type": "uint256"
        }
      ],
      "name": "encryptedTotalVotes",
      "outputs": [
        {
          "internalType": "euint32",
          "name": "",
          "type": "bytes32"
        }
      ],
      "stateMutability": "view",
      "type": "function"
    },
    {
      "inputs": [
        {
          "internalType": "uint256",
          "name": "votingId",
          "type": "uint256"
        }
      ],
      "name": "endVoting",
      "outputs": [],
      "stateMutability": "nonpayable",
      "type": "function"
    },
    {
      "inputs": [
        {
          "internalType": "uint256",
          "name": "votingId",
          "type": "uint256"
        }
      ],
      "name": "getDecryptedResults",
      "outputs": [
        {
          "internalType": "uint256[]",
          "name": "",
          "type": "uint256[]"
        }
      ],
      "stateMutability": "view",
      "type": "function"
    },
    {
      "inputs": [
        {
          "internalType": "uint256",
          "name": "votingId",
          "type": "uint256"
        }
      ],
      "name": "getTotalVoters",
      "outputs": [
        {
          "internalType": "uint256",
          "name": "",
          "type": "uint256"
        }
      ],
      "stateMutability": "view",
      "type": "function"
    },
    {
      "inputs": [
        {
          "internalType": "uint256",
          "name": "votingId",
          "type": "uint256"
        }
      ],
      "name": "getTotalVotes",
      "outputs": [
        {
          "internalType": "uint256",
          "name": "",
          "type": "uint256"
        }
      ],
      "stateMutability": "view",
      "type": "function"
    },
    {
      "inputs": [
        {
          "internalType": "uint256",
          "name": "votingId",
          "type": "uint256"
        },
        {
          "internalType": "address",
          "name": "voter",
          "type": "address"
        }
      ],
      "name": "getVoterInfo",
      "outputs": [
        {
          "components": [
            {
              "internalType": "bool",
              "name": "hasVoted",
              "type": "bool"
            },
            {
              "internalType": "bool",
              "name": "isWhitelisted",
              "type": "bool"
            },
            {
              "internalType": "uint256",
              "name": "votingPower",
              "type": "uint256"
            },
            {
              "internalType": "euint32",
              "name": "encryptedChoice",
              "type": "bytes32"
            },
            {
              "internalType": "uint256",
              "name": "voteTimestamp",
              "type": "uint256"
            }
          ],
          "internalType": "struct IFHEVoting.VoterInfo",
          "name": "",
          "type": "tuple"
        }
      ],
      "stateMutability": "view",
      "type": "function"
    },
    {
      "inputs": [
        {
          "internalType": "uint256",
          "name": "votingId",
          "type": "uint256"
        }
      ],
      "name": "getVotingConfig",
      "outputs": [
        {
          "components": [
            {
              "internalType": "string",
              "name": "name",
              "type": "string"
            },
            {
              "internalType": "string",
              "name": "description",
              "type": "string"
            },
            {
              "internalType": "enum IFHEVoting.VoteType",
              "name": "voteType",
              "type": "uint8"
            },
            {
              "internalType": "uint256",
              "name": "startTime",
              "type": "uint256"
            },
            {
              "internalType": "uint256",
              "name": "endTime",
              "type": "uint256"
            },
            {
              "internalType": "uint256",
              "name": "quorum",
              "type": "uint256"
            },
            {
              "internalType": "bool",
              "name": "whitelistEnabled",
              "type": "bool"
            },
            {
              "internalType": "uint256",
              "name": "maxVotersCount",
              "type": "uint256"
            }
          ],
          "internalType": "struct IFHEVoting.VotingConfig",
          "name": "",
          "type": "tuple"
        }
      ],
      "stateMutability": "view",
      "type": "function"
    },
    {
      "inputs": [
        {
          "internalType": "uint256",
          "name": "votingId",
          "type": "uint256"
        }
      ],
      "name": "getVotingOptions",
      "outputs": [
        {
          "internalType": "string[]",
          "name": "",
          "type": "string[]"
        }
      ],
      "stateMutability": "view",
      "type": "function"
    },
    {
      "inputs": [
        {
          "internalType": "uint256",
          "name": "votingId",
          "type": "uint256"
        }
      ],
      "name": "getVotingStatus",
      "outputs": [
        {
          "internalType": "enum IFHEVoting.VotingStatus",
          "name": "",
          "type": "uint8"
        }
      ],
      "stateMutability": "view",
      "type": "function"
    },
    {
      "inputs": [
        {
          "internalType": "uint256",
          "name": "votingId",
          "type": "uint256"
        }
      ],
      "name": "getWinningOption",
      "outputs": [
        {
          "internalType": "uint256",
          "name": "",
          "type": "uint256"
        }
      ],
      "stateMutability": "view",
      "type": "function"
    },
    {
      "inputs": [
        {
          "internalType": "uint256",
          "name": "votingId",
          "type": "uint256"
        },
        {
          "internalType": "address",
          "name": "user",
          "type": "address"
        }
      ],
      "name": "hasVoted",
      "outputs": [
        {
          "internalType": "bool",
          "name": "",
          "type": "bool"
        }
      ],
      "stateMutability": "view",
      "type": "function"
    },
    {
      "inputs": [
        {
          "internalType": "uint256",
          "name": "votingId",
          "type": "uint256"
        }
      ],
      "name": "isQuorumReached",
      "outputs": [
        {
          "internalType": "bool",
          "name": "",
          "type": "bool"
        }
      ],
      "stateMutability": "view",
      "type": "function"
    },
    {
      "inputs": [],
      "name": "owner",
      "outputs": [
        {
          "internalType": "address",
          "name": "",
          "type": "address"
        }
      ],
      "stateMutability": "view",
      "type": "function"
    },
    {
      "inputs": [],
      "name": "paused",
      "outputs": [
        {
          "internalType": "bool",
          "name": "",
          "type": "bool"
        }
      ],
      "stateMutability": "view",
      "type": "function"
    },
    {
      "inputs": [],
      "name": "protocolId",
      "outputs": [
        {
          "internalType": "uint256",
          "name": "",
          "type": "uint256"
        }
      ],
      "stateMutability": "pure",
      "type": "function"
    },
    {
      "inputs": [
        {
          "internalType": "uint256",
          "name": "votingId",
          "type": "uint256"
        },
        {
          "internalType": "address",
          "name": "voter",
          "type": "address"
        },
        {
          "internalType": "bytes32",
          "name": "publicKey",
          "type": "bytes32"
        }
      ],
      "name": "reencryptVote",
      "outputs": [
        {
          "internalType": "bytes",
          "name": "",
          "type": "bytes"
        }
      ],
      "stateMutability": "view",
      "type": "function"
    },
    {
      "inputs": [
        {
          "internalType": "bytes32",
          "name": "publicKey",
          "type": "bytes32"
        }
      ],
      "name": "registerPublicKey",
      "outputs": [],
      "stateMutability": "nonpayable",
      "type": "function"
    },
    {
      "inputs": [],
      "name": "renounceOwnership",
      "outputs": [],
      "stateMutability": "nonpayable",
      "type": "function"
    },
    {
      "inputs": [
        {
          "internalType": "uint256",
          "name": "votingId",
          "type": "uint256"
        }
      ],
      "name": "requestDecryption",
      "outputs": [],
      "stateMutability": "nonpayable",
      "type": "function"
    },
    {
      "inputs": [
        {
          "internalType": "uint256",
          "name": "",
          "type": "uint256"
        }
      ],
      "name": "requestIdToVotingId",
      "outputs": [
        {
          "internalType": "uint256",
          "name": "",
          "type": "uint256"
        }
      ],
      "stateMutability": "view",
      "type": "function"
    },
    {
      "inputs": [
        {
          "internalType": "uint256",
          "name": "",
          "type": "uint256"
        }
      ],
      "name": "resultsDecrypted",
      "outputs": [
        {
          "internalType": "bool",
          "name": "",
          "type": "bool"
        }
      ],
      "stateMutability": "view",
      "type": "function"
    },
    {
      "inputs": [
        {
          "internalType": "uint256",
          "name": "votingId",
          "type": "uint256"
        }
      ],
      "name": "startVoting",
      "outputs": [],
      "stateMutability": "nonpayable",
      "type": "function"
    },
    {
      "inputs": [
        {
          "internalType": "uint256",
          "name": "",
          "type": "uint256"
        }
      ],
      "name": "totalVoters",
      "outputs": [
        {
          "internalType": "uint256",
          "name": "",
          "type": "uint256"
        }
      ],
      "stateMutability": "view",
      "type": "function"
    },
    {
      "inputs": [
        {
          "internalType": "address",
          "name": "newOwner",
          "type": "address"
        }
      ],
      "name": "transferOwnership",
      "outputs": [],
      "stateMutability": "nonpayable",
      "type": "function"
    },
    {
      "inputs": [
        {
          "internalType": "address",
          "name": "",
          "type": "address"
        }
      ],
      "name": "userPublicKeys",
      "outputs": [
        {
          "internalType": "bytes32",
          "name": "",
          "type": "bytes32"
        }
      ],
      "stateMutability": "view",
      "type": "function"
    },
    {
      "inputs": [
        {
          "internalType": "bytes32",
          "name": "",
          "type": "bytes32"
        }
      ],
      "name": "validProofs",
      "outputs": [
        {
          "internalType": "bool",
          "name": "",
          "type": "bool"
        }
      ],
      "stateMutability": "view",
      "type": "function"
    },
    {
      "inputs": [
        {
          "internalType": "uint256",
          "name": "votingId",
          "type": "uint256"
        },
        {
          "internalType": "address",
          "name": "voter",
          "type": "address"
        },
        {
          "internalType": "bytes",
          "name": "proof",
          "type": "bytes"
        }
      ],
      "name": "verifyVoteIntegrity",
      "outputs": [
        {
          "internalType": "bool",
          "name": "",
          "type": "bool"
        }
      ],
      "stateMutability": "view",
      "type": "function"
    },
    {
      "inputs": [
        {
          "internalType": "uint256",
          "name": "",
          "type": "uint256"
        },
        {
          "internalType": "address",
          "name": "",
          "type": "address"
        }
      ],
      "name": "voterInfo",
      "outputs": [
        {
          "internalType": "bool",
          "name": "hasVoted",
          "type": "bool"
        },
        {
          "internalType": "bool",
          "name": "isWhitelisted",
          "type": "bool"
        },
        {
          "internalType": "uint256",
          "name": "votingPower",
          "type": "uint256"
        },
        {
          "internalType": "euint32",
          "name": "encryptedChoice",
          "type": "bytes32"
        },
        {
          "internalType": "uint256",
          "name": "voteTimestamp",
          "type": "uint256"
        }
      ],
      "stateMutability": "view",
      "type": "function"
    },
    {
      "inputs": [
        {
          "internalType": "uint256",
          "name": "",
          "type": "uint256"
        }
      ],
      "name": "votingConfigs",
      "outputs": [
        {
          "internalType": "string",
          "name": "name",
          "type": "string"
        },
        {
          "internalType": "string",
          "name": "description",
          "type": "string"
        },
        {
          "internalType": "enum IFHEVoting.VoteType",
          "name": "voteType",
          "type": "uint8"
        },
        {
          "internalType": "uint256",
          "name": "startTime",
          "type": "uint256"
        },
        {
          "internalType": "uint256",
          "name": "endTime",
          "type": "uint256"
        },
        {
          "internalType": "uint256",
          "name": "quorum",
          "type": "uint256"
        },
        {
          "internalType": "bool",
          "name": "whitelistEnabled",
          "type": "bool"
        },
        {
          "internalType": "uint256",
          "name": "maxVotersCount",
          "type": "uint256"
        }
      ],
      "stateMutability": "view",
      "type": "function"
    },
    {
      "inputs": [],
      "name": "votingCounter",
      "outputs": [
        {
          "internalType": "uint256",
          "name": "",
          "type": "uint256"
        }
      ],
      "stateMutability": "view",
      "type": "function"
    },
    {
      "inputs": [
        {
          "internalType": "uint256",
          "name": "",
          "type": "uint256"
        }
      ],
      "name": "votingCreator",
      "outputs": [
        {
          "internalType": "address",
          "name": "",
          "type": "address"
        }
      ],
      "stateMutability": "view",
      "type": "function"
    },
    {
      "inputs": [
        {
          "internalType": "uint256",
          "name": "",
          "type": "uint256"
        },
        {
          "internalType": "uint256",
          "name": "",
          "type": "uint256"
        }
      ],
      "name": "votingOptions",
      "outputs": [
        {
          "internalType": "string",
          "name": "name",
          "type": "string"
        },
        {
          "internalType": "string",
          "name": "description",
          "type": "string"
        },
        {
          "internalType": "euint32",
          "name": "encryptedVoteCount",
          "type": "bytes32"
        },
        {
          "internalType": "bool",
          "name": "active",
          "type": "bool"
        }
      ],
      "stateMutability": "view",
      "type": "function"
    },
    {
      "inputs": [
        {
          "internalType": "uint256",
          "name": "",
          "type": "uint256"
        }
      ],
      "name": "votingStatus",
      "outputs": [
        {
          "internalType": "enum IFHEVoting.VotingStatus",
          "name": "",
          "type": "uint8"
        }
      ],
      "stateMutability": "view",
      "type": "function"
    },
    {
      "inputs": [
        {
          "internalType": "uint256",
          "name": "",
          "type": "uint256"
        },
        {
          "internalType": "address",
          "name": "",
          "type": "address"
        }
      ],
      "name": "whitelist",
      "outputs": [
        {
          "internalType": "bool",
          "name": "",
          "type": "bool"
        }
      ],
      "stateMutability": "view",
      "type": "function"
    },
    {
      "inputs": [
        {
          "internalType": "uint256",
          "name": "",
          "type": "uint256"
        }
      ],
      "name": "whitelistCount",
      "outputs": [
        {
          "internalType": "uint256",
          "name": "",
          "type": "uint256"
        }
      ],
      "stateMutability": "view",
      "type": "function"
    },
    {
      "inputs": [
        {
          "internalType": "uint256",
          "name": "votingId",
          "type": "uint256"
        },
        {
          "internalType": "address[]",
          "name": "voters",
          "type": "address[]"
        },
        {
          "internalType": "uint256[]",
          "name": "votingPowers",
          "type": "uint256[]"
        }
      ],
      "name": "whitelistVoters",
      "outputs": [],
      "stateMutability": "nonpayable",
      "type": "function"
    }
  ],
  "bytecode": "0x6080604052346101f55733156101e2575f8054336001600160a01b0319821681178355916001600160a01b03909116907f8be0079c531659141344cd1fd0a4f28419497f9722a3daafe3b4186f6b6457e09080a3600180555f60606100626101f9565b8281528260208201528260408201520152731364cbbf2cdf5032c47d8226a6f6fbd2afcdacac60606100926101f9565b73687820221192c5b662b25367f70076a37bc79b6c815273848b0066793bcc60346da1f49049357399b8d595602082015273a02cda4ca3a71d7c46997716f4283aa851c288126040820152015273687820221192c5b662b25367f70076a37bc79b6c60018060a01b03195f5160206135ee5f395f51905f525416175f5160206135ee5f395f51905f525573848b0066793bcc60346da1f49049357399b8d59560018060a01b03195f5160206135ae5f395f51905f525416175f5160206135ae5f395f51905f525573a02cda4ca3a71d7c46997716f4283aa851c2881260018060a01b03195f5160206135ce5f395f51905f525416175f5160206135ce5f395f51905f5255731364cbbf2cdf5032c47d8226a6f6fbd2afcdacac60018060a01b03195f51602061358e5f395f51905f525416175f51602061358e5f395f51905f5255604051613361908161022d8239f35b631e4fbdf760e01b5f525f60045260245ffd5b5f80fd5b60405190608082016001600160401b0381118382101761021857604052565b634e487b7160e01b5f52604160045260245ffdfe6080806040526004361015610012575f80fd5b5f3560e01c908163070a854014612960575080630da183d6146129455780630e13dd74146129135780631780fe20146128f65780631a79004b14612891578063211476791461285f5780632ce35e11146124ff57806339774a38146127ab57806339b3e43c146127335780633ceed692146127175780633d2f5bda1461260b57806341d14c221461254d578063438596321461250457806343d3a4c1146124ff578063498d91bf146124d55780634a4e3bd51461246f5780634b25bfce146124265780634cd1f470146123ee57806351858e27146123955780635c975abb14612373578063613e48ab14611ed757806361c6dadb14611ead578063649f89a514611d9c5780636aa8ba8414611d115780636b05f2ce14611ce7578063715018a614611c9057806382e89197146118995780638589c7a5146113b5578063889376b8146111885780638da5cb5b146111615780638f633994146111325780639079991f146110f75780639096599014610a29578063a571b13214610970578063a6286870146108cc578063bfa87057146108a2578063d0a17a3714610756578063d33e327f14610660578063da1f12ab14610644578063dcc560b01461061a578063e172b700146105dc578063e2f631b5146105ad578063e4ee00a61461049c578063eaf1061c14610480578063eefe85e414610462578063f2fde38b146103dd578063f41714ed146103005763fbc759a11461022c575f80fd5b346102fc5760403660031901126102fc57610245612ae9565b5f6080604051610254816129cd565b82815282602082015282604082015282606082015201526004355f52600860205260405f209060018060a01b03165f5260205260a060405f20604051610299816129cd565b81549160ff831615159283835260ff602084019160081c1615158152600182015490604084019182526080600360028501549460608701958652015494019384526040519485525115156020850152516040840152516060830152516080820152f35b5f80fd5b346102fc5760603660031901126102fc5760043561031c612ae9565b906044356001600160401b0381116102fc576020926103426103ce923690600401612b15565b939091815f526008865260405f2060018060a01b0382165f52865261036d60ff60405f205416612f68565b815f526008865260405f2060018060a01b0382165f528652600360405f200154604051918783019384526bffffffffffffffffffffffff199060601b1660408301526054820152605481526103c3607482612a04565b519020923691612d10565b82815191012014604051908152f35b346102fc5760203660031901126102fc576103f6612aff565b6103fe612fb4565b6001600160a01b0316801561044f575f80546001600160a01b03198116831782556001600160a01b0316907f8be0079c531659141344cd1fd0a4f28419497f9722a3daafe3b4186f6b6457e09080a3005b631e4fbdf760e01b5f525f60045260245ffd5b346102fc575f3660031901126102fc5760206040516301e133808152f35b346102fc575f3660031901126102fc576020604051610e108152f35b346102fc5760203660031901126102fc57600435805f52600760205260405f20546104c681612d63565b916104d46040519384612a04565b818352601f196104e383612d63565b015f5b81811061059c5750505f5b82811061055f57836040518091602082016020835281518091526040830190602060408260051b8601019301915f905b82821061053057505050500390f35b9193600191939550602061054f8192603f198a82030186528851612ac5565b9601920192018594939192610521565b600190825f52600760205261058061057a8260405f20612b58565b50612a25565b61058a8287612fa0565b526105958186612fa0565b50016104f1565b8060606020809388010152016104e6565b346102fc5760203660031901126102fc576004355f52600c602052602060ff60405f2054166040519015158152f35b346102fc576105ea36612b42565b905f52600b60205260405f2080548210156102fc5760209161060b91612bb5565b90549060031b1c604051908152f35b346102fc5760203660031901126102fc576004355f526012602052602060405f2054604051908152f35b346102fc575f3660031901126102fc5760206040516127118152f35b346102fc5760603660031901126102fc5760043561067c612ae9565b90805f52600860205260405f2060018060a01b0383165f526020526106a760ff60405f205416612f68565b6001600160a01b0382165f90815260036020526040902054604435900361071c575f52600860205260405f209060018060a01b03165f52602052610718600260405f20015460405190602082015260208152610704604082612a04565b604051918291602083526020830190612ac5565b0390f35b60405162461bcd60e51b8152602060048201526012602482015271496e76616c6964207075626c6963206b657960701b6044820152606490fd5b346102fc5760203660031901126102fc575f60e0604051610776816129e8565b60608152606060208201528260408201528260608201528260808201528260a08201528260c082015201526004355f52600660205261085a60405f20604051906107bf826129e8565b6107c881612a25565b82526107d660018201612a25565b6020830190815260ff6002830154169160408401926107f48161298b565b835260038101546060850190815260048201546080860190815260058301549160a0870192835261086d600760ff6006870154169560c08a01961515875201549560e08901968752604051998a9960208b525161010060208c01526101208b0190612ac5565b9051898203601f190160408b0152612ac5565b95516108788161298b565b60608801525160808701525160a08601525160c085015251151560e0840152516101008301520390f35b346102fc5760203660031901126102fc576004355f526010602052602060405f2054604051908152f35b346102fc5760203660031901126102fc57600435805f52600c6020526108f860ff60405f205416612c0e565b5f5f915f5b815f52600b60205260405f205481101561096557815f52600b602052826109278260405f20612bb5565b90549060031b1c1161093c575b6001016108fd565b92508091505f52600b6020526109558260405f20612bb5565b905460039190911b1c9082610934565b602084604051908152f35b346102fc5760803660031901126102fc576024356001600160401b0381116102fc576109a0903690600401612b85565b50506044356001600160401b0381116102fc576109c1903690600401612b85565b50506064356001600160401b0381116102fc576109e2903690600401612b15565b505060405162461bcd60e51b815260206004820152601f60248201527f55736520464845517561647261746963566f74696e6720636f6e7472616374006044820152606490fd5b346102fc5760603660031901126102fc576004356001600160401b0381116102fc578060040161010060031983360301126102fc576024356001600160401b0381116102fc57610a7d903690600401612b85565b92906044356001600160401b0381116102fc57610a9e903690600401612b85565b9390610aab858714612d90565b600286106110b2576064861161107a576064840135956084850135938488101561106b57610e10610adc8987613185565b1061106b576301e13380610af08987613185565b1161106b5742881061106b5760055496610b0988612d55565b600555875f52600660205260405f20610b228680612ed8565b906001600160401b038211610f0357610b4582610b3f8554612995565b85612f0a565b5f90601f831160011461100757610b7392915f9183610ffc575b50508160011b915f199060031b1c19161790565b81555b60018101610b8760248a0188612ed8565b906001600160401b038211610f0357610ba482610b3f8554612995565b5f90601f8311600114610f9857610bd192915f9183610f8d5750508160011b915f199060031b1c19161790565b90555b6044880135976002820160048a10156102fc57610bf08a61298b565b60ff1981541660ff8b161790558a600383015587600483015560a4810135600583015560c481013580151581036102fc57600791610c3f60e492600686019060ff801983541691151516179055565b01359101555f888152600960209081526040808320805460ff19169055600e909152812080546001600160a01b031916331790555b838110610d0f57602089807fcee2e27fb2b9fca63e047dd7a5f313beb4a7be959bc9c74a8025c8928baccbe98d60a08d8d610cc38e610cb1613192565b885f52600d8b5260405f205580612ed8565b948592919360405196879560808752816080880152878701375f868587010152610cec8161298b565b848b015260408401526060830152601f01601f19168101030190a2604051908152f35b885f52600760205260405f20610d26828686612f4d565b610d3484868a959495612f4d565b9190610d3e613192565b926040519560808701908782106001600160401b03831117610f0357610d7594610d6c926040523691612d10565b86523691612d10565b60208401908152604084019182526060840192600184528054600160401b811015610f0357610da991600182018155612b58565b949094610f7a57518051906001600160401b038211610f0357610dd682610dd08854612995565b88612f0a565b602090601f8311600114610f1757610e0492915f9183610e8b5750508160011b915f199060031b1c19161790565b84555b51805160018501916001600160401b038211610f0357610e2b82610b3f8554612995565b602090601f8311600114610e965792610e6683610e85979460019a9997946003975f92610e8b5750508160011b915f199060031b1c19161790565b90555b51600284015551151591019060ff801983541691151516179055565b01610c74565b015190505f80610b5f565b90601f19831691845f52815f20925f5b818110610eeb575093600199989693600396938b9383610e859b9810610ed4575b505050811b019055610e69565b01515f1983891b60f8161c191690555f8080610ec7565b92936020600181928786015181550195019301610ea6565b634e487b7160e01b5f52604160045260245ffd5b90601f19831691875f52815f20925f5b818110610f625750908460019594939210610f4a575b505050811b018455610e07565b01515f1960f88460031b161c191690555f8080610f3d565b92936020600181928786015181550195019301610f27565b634e487b7160e01b5f525f60045260245ffd5b013590508e80610b5f565b601f19831691845f5260205f20925f5b818110610fe45750908460019594939210610fcb575b505050811b019055610bd4565b01355f19600384901b60f8161c191690558d8080610fbe565b91936020600181928787013581550195019201610fa8565b013590508d80610b5f565b601f19831691845f5260205f20925f5b818110611053575090846001959493921061103a575b505050811b018155610b76565b01355f19600384901b60f8161c191690558c808061102d565b91936020600181928787013581550195019201611017565b63b11cd48160e01b5f5260045ffd5b60405162461bcd60e51b815260206004820152601060248201526f546f6f206d616e79206f7074696f6e7360801b6044820152606490fd5b60405162461bcd60e51b815260206004820152601b60248201527f4174206c656173742032206f7074696f6e7320726571756972656400000000006044820152606490fd5b346102fc5760203660031901126102fc576020600435805f52600a825260405f2054905f5260068252600560405f2001541115604051908152f35b346102fc5760203660031901126102fc576020611150600435612df4565b6040519061115d8161298b565b8152f35b346102fc575f3660031901126102fc575f546040516001600160a01b039091168152602090f35b346102fc5760603660031901126102fc576004356024356001600160401b0381116102fc576111bb903690600401612b85565b916044356001600160401b0381116102fc576111db903690600401612b85565b6111e6929192612fb4565b6111f36005548310612bca565b6111fe818614612d90565b815f52600960205260ff60405f2054166112178161298b565b611377575f5b85811061122657005b600190835f52600f60205260405f20611248611243838a8a612dd0565b612de0565b838060a01b03165f5260205260ff60405f20541615611268575b0161121d565b835f52600f60205260405f20611282611243838a8a612dd0565b838060a01b03165f5260205260405f208260ff19825416179055835f52600860205260405f206112b6611243838a8a612dd0565b838060a01b03165f5260205260405f2061010061ff00198254161790556112de818487612dd0565b35845f52600860205260405f206112f9611243848b8b612dd0565b848060a01b03165f526020528260405f200155835f52601060205260405f206113228154612d55565b9055611332611243828989612dd0565b847f0d8ffcf4aedeb82895eb7d47049fb5257a4f61b0c6819d6d31163b45228d43ab602061136185888b612dd0565b3593604051948552868060a01b031693a3611262565b60405162461bcd60e51b8152602060048201526016602482015275159bdd1a5b99c8185b1c9958591e481cdd185c9d195960521b6044820152606490fd5b346102fc5760603660031901126102fc576004356044356001600160401b0381116102fc5761149b6113ee6114a3923690600401612b15565b6113fb6005548610612bca565b5f858152600660205260409020600381015460049091015461142791421015908161188e575b50612c52565b845f52600960205260ff60405f2054166114408161298b565b15611841575b845f52600660205260ff600660405f20015416611817575b611466612fda565b61146e612ff5565b5f8581526008602090815260408083203384529091529020546114949060ff1615612cd4565b3691612d10565b602435613015565b6114ac81613128565b50815f52600f60205260405f2060018060a01b0333165f5260205260ff60405f2054166003604051916114de836129cd565b60018352602083019015158152604083016001815260608401908582526080850192428452875f52600860205260405f2060018060a01b0333165f5260205261153a60405f2096511515879060ff801983541691151516179055565b51855461ff00191690151560081b61ff0016178555516001850155516002840155519101555f8281526007602052604081205482159290915b8281106116665784805f52600d60205261159b60405f20546115956001613213565b90613267565b815f52600d60205260405f2055805f52600a60205260405f206115be8154612d55565b9055604051428152817f2acce567deca3aabf56327adbb4524bd5318936eaefa69e3a5208ffda0cfec0960203393a3805f52600a60205260405f2054815f526006602052600560405f2001541115611617575b60018055005b805f52600a6020527fb20da58627735347d6000915fe4c9d4e84ab94bd17ba266ba80162f4854790986040805f2054835f5260066020526005825f20015482519182526020820152a280611611565b8061167763ffffffff869316613213565b8392611807575b80156117f5575b602090606460018060a01b035f5160206132ec5f395f51905f525416945f604051968794859363f77f3f1d60e01b8552600485015260248401528160448401525af19182156117b7575f926117c2575b5060206116e26001613213565b60646116ec613192565b5f5160206132ec5f395f51905f5254604051637702dcff60e01b8152600481019790975260248701939093526044860152849182905f906001600160a01b03165af19182156117b7575f92611782575b50611762600192875f526007602052600261175a8460405f20612b58565b500154613267565b865f52600760205260026117798360405f20612b58565b50015501611573565b91506020823d82116117af575b8161179c60209383612a04565b810103126102fc5790519061176261173c565b3d915061178f565b6040513d5f823e3d90fd5b9091506020813d82116117ed575b816117dd60209383612a04565b810103126102fc575190866116d5565b3d91506117d0565b506020611800613192565b9050611685565b9150611811613192565b9161167e565b5f858152600f6020908152604080832033845290915290205461183c9060ff16612c96565b61145e565b5f8581526009602052604090819020805460ff198116600117909155815187925f51602061330c5f395f51905f529290919060ff1661187f8161298b565b815260016020820152a2611446565b905042111587611421565b346102fc5760203660031901126102fc576004356118ba6005548210612bca565b805f526006602052600460405f200154421015611bfb575b805f526009602052600260ff60405f2054166118ed8161298b565b148015611bd9575b15611ba157805f52600c60205260ff60405f205416611b68575f818152600e60205260409020546001600160a01b03163303611b2e57805f52600760205260405f205461194181612d63565b61194e6040519182612a04565b81815261195a82612d63565b602082019190601f1901368337835f52600b60205260405f209051916001600160401b038311610f0357600160401b8311610f03578154838355808410611b12575b50905f5260205f205f5b838110611afe5785855f5b818110611aa4575f838152600c60209081526040808320805460ff19166001179055600990915290208054849160ff9190911690805460ff19166003179055604051906119fd8161298b565b81525f51602061330c5f395f51905f526040826003602086950152a2805f52600b60205260405f20604051906040820160408352815480915260608301915f5260205f20905f5b818110611a7a57426020860152857f51de0405d9f7576ff254cf4434e45c3e7710b3a34f1c9d563e626b456a463d3986860387a2005b8254845260209093019260019283019201611a44565b634e487b7160e01b5f52602160045260245ffd5b606481029080820460641481151715611aea57600191845f52600b602052611acf8260405f20612bb5565b819291549060031b91821b915f19901b1916179055016119b1565b634e487b7160e01b5f52601160045260245ffd5b6001906020845194019381840155016119a6565b611b2890835f528460205f209182019101612d7a565b8561199c565b60405162461bcd60e51b81526020600482015260126024820152712737ba103b37ba34b7339031b932b0ba37b960711b6044820152606490fd5b60405162461bcd60e51b8152602060048201526011602482015270105b1c9958591e48191958dc9e5c1d1959607a1b6044820152606490fd5b60405162461bcd60e51b815260206004820152601060248201526f159bdd1a5b99c81b9bdd08195b99195960821b6044820152606490fd5b50805f526009602052600360ff60405f205416611bf58161298b565b146118f5565b805f526009602052600160ff60405f205416611c168161298b565b148015611c70575b156118d2575f8181526009602052604090819020805460ff198116600217909155815183925f51602061330c5f395f51905f529290919060ff16611c618161298b565b815260026020820152a26118d2565b50805f52600960205260ff60405f205416611c8a8161298b565b15611c1e565b346102fc575f3660031901126102fc57611ca8612fb4565b5f80546001600160a01b0319811682556001600160a01b03167f8be0079c531659141344cd1fd0a4f28419497f9722a3daafe3b4186f6b6457e08280a3005b346102fc5760203660031901126102fc576004355f52600d602052602060405f2054604051908152f35b346102fc57611d1f36612b42565b905f52600760205260405f2080548210156102fc57611d7d91611d4191612b58565b50611d4b81612a25565b90611d5860018201612a25565b611d8b60ff600360028501549401541691604051958695608087526080870190612ac5565b908582036020870152612ac5565b916040840152151560608301520390f35b346102fc5760203660031901126102fc57600435611db8612fb4565b611dc56005548210612bca565b805f526009602052600160ff60405f205416611de08161298b565b03611e7b57805f526006602052600460405f2001544210611e43575f818152600960205260409020805460ff1690805460ff1916600217905560405190611e268161298b565b8152604081600260205f51602061330c5f395f51905f52940152a2005b60405162461bcd60e51b815260206004820152601060248201526f151bdbc819585c9b1e481d1bc8195b9960821b6044820152606490fd5b60405162461bcd60e51b815260206004820152600a6024820152694e6f742061637469766560b01b6044820152606490fd5b346102fc5760203660031901126102fc576004355f526011602052602060405f2054604051908152f35b346102fc5760803660031901126102fc576044356004356064356001600160401b0381116102fc57611f0d903690600401612b15565b611f1a6005548410612bca565b5f8381526006602052604090206003810154600490910154611f459142101590816123685750612c52565b825f52600960205260ff60405f205416611f5e8161298b565b1561231b575b825f52600660205260ff600660405f200154166122f1575b611f84612fda565b611f8c612ff5565b825f526006602052600260ff8160405f20015416611fa98161298b565b036122b6575f838152600860209081526040808320338452909152902054611fd49060ff1615612cd4565b83151580612291575b1561225b57611ff19161149b913691612d10565b611ffa81613128565b505f8281526008602090815260408083203384528252808320805460ff191660011781556002810185905542600390910155848352600790915281205482159463ffffffff169290915b8281106120be578461206685825f52600d60205261159560405f205491613213565b815f52600d60205260405f2055805f52600a60205260405f206120898154612d55565b9055604051904282527f2acce567deca3aabf56327adbb4524bd5318936eaefa69e3a5208ffda0cfec0960203393a360018055005b806120cf63ffffffff889316613213565b839261224b575b8015612239575b602090606460018060a01b035f5160206132ec5f395f51905f525416945f604051968794859363f77f3f1d60e01b8552600485015260248401528160448401525af19182156117b7575f92612206575b50602061213986613213565b6064612143613192565b5f5160206132ec5f395f51905f5254604051637702dcff60e01b8152600481019790975260248701939093526044860152849182905f906001600160a01b03165af19182156117b7575f926121d1575b506121b1600192875f526007602052600261175a8460405f20612b58565b865f52600760205260026121c88360405f20612b58565b50015501612044565b91506020823d82116121fe575b816121eb60209383612a04565b810103126102fc579051906121b1612193565b3d91506121de565b9091506020813d8211612231575b8161222160209383612a04565b810103126102fc5751908761212d565b3d9150612214565b506020612244613192565b90506120dd565b9150612255613192565b916120d6565b60405162461bcd60e51b815260206004820152600e60248201526d125b9d985b1a59081dd95a59da1d60921b6044820152606490fd5b505f838152600860209081526040808320338452909152902060010154841115611fdd565b60405162461bcd60e51b81526020600482015260136024820152724e6f7420776569676874656420766f74696e6760681b6044820152606490fd5b5f838152600f602090815260408083203384529091529020546123169060ff16612c96565b611f7c565b5f8381526009602052604090819020805460ff198116600117909155815185925f51602061330c5f395f51905f529290919060ff166123598161298b565b815260016020820152a2611f64565b905042111586611421565b346102fc575f3660031901126102fc57602060ff600254166040519015158152f35b346102fc575f3660031901126102fc576123ad612fb4565b6123b5612fda565b600160ff1960025416176002557f62e78cea01bee320cd4e420270b5ea74000d11b0c9f74754ebdbfc544b05a2586020604051338152a1005b346102fc5760203660031901126102fc576001600160a01b0361240f612aff565b165f526003602052602060405f2054604051908152f35b346102fc5760403660031901126102fc5761243f612ae9565b6004355f52600f60205260405f209060018060a01b03165f52602052602060ff60405f2054166040519015158152f35b346102fc575f3660031901126102fc57612487612fb4565b60025460ff8116156124c65760ff19166002557f5db9ee0a495bf2e6ff9c91a7834c1ba4fdd244a5e8aa4e537bd38aeae4b073aa6020604051338152a1005b638dfc202b60e01b5f5260045ffd5b346102fc5760203660031901126102fc576004355f52600a602052602060405f2054604051908152f35b6124d5565b346102fc5760403660031901126102fc5761251d612ae9565b6004355f52600860205260405f209060018060a01b03165f52602052602060ff60405f2054166040519015158152f35b346102fc5760203660031901126102fc57600435805f52600c60205261257960ff60405f205416612c0e565b5f52600b60205260405f20604051806020835491828152019081935f5260205f20905f5b8181106125f557505050816125b3910382612a04565b604051918291602083019060208452518091526040830191905f5b8181106125dc575050500390f35b82518452859450602093840193909201916001016125ce565b825484526020909301926001928301920161259d565b346102fc5760203660031901126102fc57600435612627612fb4565b6126346005548210612bca565b805f52600960205260ff60405f20541661264d8161298b565b6126e057805f526006602052600360405f20015442106126af575f818152600960205260409020805460ff1690805460ff19166001179055604051906126928161298b565b8152604081600160205f51602061330c5f395f51905f52940152a2005b60405162461bcd60e51b8152602060048201526009602482015268546f6f206561726c7960b81b6044820152606490fd5b60405162461bcd60e51b815260206004820152600f60248201526e105b1c9958591e481cdd185c9d1959608a1b6044820152606490fd5b346102fc575f3660031901126102fc5760206040516127108152f35b346102fc5760403660031901126102fc5761274c612ae9565b6004355f52600860205260405f209060018060a01b03165f5260205260a060405f20805490600181015490600360028201549101549160ff604051948181161515865260081c1615156020850152604084015260608301526080820152f35b346102fc5760203660031901126102fc576004355f52600660205261282360405f206127d681612a25565b906127e360018201612a25565b60ff6002830154169160038101546004820154600583015491612831600760ff60068701541695015495604051998a996101008b526101008b0190612ac5565b9089820360208b0152612ac5565b9561283b8161298b565b60408801526060870152608086015260a0850152151560c084015260e08301520390f35b346102fc5760203660031901126102fc576004355f52600e602052602060018060a01b0360405f205416604051908152f35b346102fc5760203660031901126102fc5760043580156128e757335f5260036020528060405f20556040519081527f7a4bc391d21f6e1266001f2c5792e6d1eaf34a68d5540916835e975c17e27e9060203392a2005b63145a1fdd60e31b5f5260045ffd5b346102fc575f3660031901126102fc576020600554604051908152f35b346102fc5760203660031901126102fc576004355f526009602052602060ff60405f2054166040519061115d8161298b565b346102fc575f3660031901126102fc57602060405160648152f35b346102fc5760203660031901126102fc576020906004355f526004825260ff60405f20541615158152f35b60041115611a9057565b90600182811c921680156129c3575b60208310146129af57565b634e487b7160e01b5f52602260045260245ffd5b91607f16916129a4565b60a081019081106001600160401b03821117610f0357604052565b61010081019081106001600160401b03821117610f0357604052565b90601f801991011681019081106001600160401b03821117610f0357604052565b9060405191825f825492612a3884612995565b8084529360018116908115612aa35750600114612a5f575b50612a5d92500383612a04565b565b90505f9291925260205f20905f915b818310612a87575050906020612a5d928201015f612a50565b6020919350806001915483858901015201910190918492612a6e565b905060209250612a5d94915060ff191682840152151560051b8201015f612a50565b805180835260209291819084018484015e5f828201840152601f01601f1916010190565b602435906001600160a01b03821682036102fc57565b600435906001600160a01b03821682036102fc57565b9181601f840112156102fc578235916001600160401b0383116102fc57602083818601950101116102fc57565b60409060031901126102fc576004359060243590565b8054821015612b71575f5260205f209060021b01905f90565b634e487b7160e01b5f52603260045260245ffd5b9181601f840112156102fc578235916001600160401b0383116102fc576020808501948460051b0101116102fc57565b8054821015612b71575f5260205f2001905f90565b15612bd157565b60405162461bcd60e51b8152602060048201526015602482015274159bdd1a5b99c8191bd95cc81b9bdd08195e1a5cdd605a1b6044820152606490fd5b15612c1557565b60405162461bcd60e51b815260206004820152601560248201527414995cdd5b1d1cc81b9bdd08191958dc9e5c1d1959605a1b6044820152606490fd5b15612c5957565b60405162461bcd60e51b815260206004820152601560248201527413dd5d1cda5919481d9bdd1a5b99c81c195c9a5bd9605a1b6044820152606490fd5b15612c9d57565b60405162461bcd60e51b815260206004820152600f60248201526e139bdd081dda1a5d195b1a5cdd1959608a1b6044820152606490fd5b15612cdb57565b60405162461bcd60e51b815260206004820152600d60248201526c105b1c9958591e481d9bdd1959609a1b6044820152606490fd5b9291926001600160401b038211610f035760405191612d39601f8201601f191660200184612a04565b8294818452818301116102fc578281602093845f960137010152565b5f198114611aea5760010190565b6001600160401b038111610f035760051b60200190565b818110612d85575050565b5f8155600101612d7a565b15612d9757565b60405162461bcd60e51b81526020600482015260116024820152704d69736d6174636865642061727261797360781b6044820152606490fd5b9190811015612b715760051b0190565b356001600160a01b03811681036102fc5790565b805f52600660205260405f20604051612e0c816129e8565b612e1582612a25565b8152612e2360018301612a25565b602082015260ff600283015416612e398161298b565b604082015260038201549081606082015260e06007600485015494856080850152600581015460a085015260ff600682015416151560c085015201549101524210612ed257421115612eae575f526009602052600360ff60405f205416612e9f8161298b565b14612ea957600290565b600390565b5f526009602052600360ff60405f205416612ec88161298b565b14612ea957600190565b50505f90565b903590601e19813603018212156102fc57018035906001600160401b0382116102fc576020019181360383136102fc57565b9190601f8111612f1957505050565b612a5d925f5260205f20906020601f840160051c83019310612f43575b601f0160051c0190612d7a565b9091508190612f36565b90821015612b7157612f649160051b810190612ed8565b9091565b15612f6f57565b60405162461bcd60e51b8152602060048201526009602482015268139bdd081d9bdd195960ba1b6044820152606490fd5b8051821015612b715760209160051b010190565b5f546001600160a01b03163303612fc757565b63118cdaa760e01b5f523360045260245ffd5b60ff60025416612fe657565b63d93c066560e01b5f5260045ffd5b600260015414613006576002600155565b633ee5aeb560e01b5f5260045ffd5b6130649160209160018060a01b035f5160206132ec5f395f51905f525416905f60405180968195829463196d0b9b60e01b84526004840152336024840152608060448401526084830190612ac5565b6004606483015203925af19081156117b7575f916130f6575b507f9e7b61f58c47dc699ac88507c4f5bb9f121c03808c5676a8078fe583e4649700546001600160a01b0316803b156102fc57604051630f8e573b60e21b815260048101839052336024820152905f908290818381604481015b03925af180156117b7576130e9575090565b5f6130f391612a04565b90565b90506020813d602011613120575b8161311160209383612a04565b810103126102fc57515f61307d565b3d9150613104565b7f9e7b61f58c47dc699ac88507c4f5bb9f121c03808c5676a8078fe583e4649700546001600160a01b0316803b156102fc57604051635ca4b5b160e11b815260048101839052306024820152905f908290818381604481016130d7565b91908203918211611aea57565b5f5160206132ec5f395f51905f5254604051639cd07acb60e01b81525f600480830182905260248301529091602091839160449183916001600160a01b03165af19081156117b7575f916131e4575090565b90506020813d60201161320b575b816131ff60209383612a04565b810103126102fc575190565b3d91506131f2565b602063ffffffff604460018060a01b035f5160206132ec5f395f51905f525416935f6040519586948593639cd07acb60e01b8552166004840152600460248401525af19081156117b7575f916131e4575090565b9081156132db575b80156132c9575b602090606460018060a01b035f5160206132ec5f395f51905f525416935f604051958694859363022f65e760e31b8552600485015260248401528160448401525af19081156117b7575f916131e4575090565b5060206132d4613192565b9050613276565b90506132e5613192565b9061326f56fe9e7b61f58c47dc699ac88507c4f5bb9f121c03808c5676a8078fe583e4649701be2b7b718e690d7be0faf0fe43b330f64dadd53b9daaa92771c788cb50c158fba26469706673582212204c372be8d37a153817588fcccc253b6a59328db3af722a26d99269f4a4617af564736f6c634300081c00339e7b61f58c47dc699ac88507c4f5bb9f121c03808c5676a8078fe583e46497039e7b61f58c47dc699ac88507c4f5bb9f121c03808c5676a8078fe583e46497019e7b61f58c47dc699ac88507c4f5bb9f121c03808c5676a8078fe583e46497029e7b61f58c47dc699ac88507c4f5bb9f121c03808c5676a8078fe583e4649700",
  "linkReferences": {},
  "deployedLinkReferences": {}
}